{
  "address": "0x5FbDB2315678afecb367f032d93F642f64180aa3",
  "abi": [
    {
      "inputs": [],
      "stateMutability": "nonpayable",
      "type": "constructor"
    },
    {
      "anonymous": false,
      "inputs": [
        {
          "indexed": true,
          "internalType": "string",
          "name": "uid",
          "type": "string"
        },
        {
          "indexed": false,
          "internalType": "string",
          "name": "rawUid",
          "type": "string"
        },
        {
          "indexed": true,
          "internalType": "address",
          "name": "customer",
          "type": "address"
        },
        {
          "indexed": true,
          "internalType": "uint256",
          "name": "timestamp",
          "type": "uint256"
        }
      ],
      "name": "AlbumBought",
      "type": "event"
    },
    {
      "anonymous": false,
      "inputs": [
        {
          "indexed": true,
          "internalType": "string",
          "name": "albumUid",
          "type": "string"
        },
        {
          "indexed": true,
          "internalType": "address",
          "name": "customer",
          "type": "address"
        }
      ],
      "name": "OrderDelivered",
      "type": "event"
    },
    {
      "inputs": [
        {
          "internalType": "string",
          "name": "uid",
          "type": "string"
        },
        {
          "internalType": "string",
          "name": "title",
          "type": "string"
        },
        {
          "internalType": "uint256",
          "name": "price",
          "type": "uint256"
        },
        {
          "internalType": "uint256",
          "name": "quantity",
          "type": "uint256"
        }
      ],
      "name": "addAlbum",
      "outputs": [],
      "stateMutability": "nonpayable",
      "type": "function"
    },
    {
      "inputs": [
        {
          "internalType": "uint256",
          "name": "",
          "type": "uint256"
        }
      ],
      "name": "albums",
      "outputs": [
        {
          "internalType": "uint256",
          "name": "index",
          "type": "uint256"
        },
        {
          "internalType": "string",
          "name": "uid",
          "type": "string"
        },
        {
          "internalType": "string",
          "name": "title",
          "type": "string"
        },
        {
          "internalType": "uint256",
          "name": "price",
          "type": "uint256"
        },
        {
          "internalType": "uint256",
          "name": "quantity",
          "type": "uint256"
        }
      ],
      "stateMutability": "view",
      "type": "function"
    },
    {
      "inputs": [],
      "name": "allAlbums",
      "outputs": [
        {
          "components": [
            {
              "internalType": "uint256",
              "name": "index",
              "type": "uint256"
            },
            {
              "internalType": "string",
              "name": "uid",
              "type": "string"
            },
            {
              "internalType": "string",
              "name": "title",
              "type": "string"
            },
            {
              "internalType": "uint256",
              "name": "price",
              "type": "uint256"
            },
            {
              "internalType": "uint256",
              "name": "quantity",
              "type": "uint256"
            }
          ],
          "internalType": "struct MusicShop.Album[]",
          "name": "",
          "type": "tuple[]"
        }
      ],
      "stateMutability": "view",
      "type": "function"
    },
    {
      "inputs": [
        {
          "internalType": "uint256",
          "name": "_index",
          "type": "uint256"
        }
      ],
      "name": "buy",
      "outputs": [],
      "stateMutability": "payable",
      "type": "function"
    },
    {
      "inputs": [],
      "name": "currentIndex",
      "outputs": [
        {
          "internalType": "uint256",
          "name": "",
          "type": "uint256"
        }
      ],
      "stateMutability": "view",
      "type": "function"
    },
    {
      "inputs": [],
      "name": "currentOrderId",
      "outputs": [
        {
          "internalType": "uint256",
          "name": "",
          "type": "uint256"
        }
      ],
      "stateMutability": "view",
      "type": "function"
    },
    {
      "inputs": [
        {
          "internalType": "uint256",
          "name": "_index",
          "type": "uint256"
        }
      ],
      "name": "delivered",
      "outputs": [],
      "stateMutability": "nonpayable",
      "type": "function"
    },
    {
      "inputs": [
        {
          "internalType": "uint256",
          "name": "",
          "type": "uint256"
        }
      ],
      "name": "orders",
      "outputs": [
        {
          "internalType": "uint256",
          "name": "orderId",
          "type": "uint256"
        },
        {
          "internalType": "string",
          "name": "albumUid",
          "type": "string"
        },
        {
          "internalType": "address",
          "name": "customer",
          "type": "address"
        },
        {
          "internalType": "uint256",
          "name": "orderedAt",
          "type": "uint256"
        },
        {
          "internalType": "enum MusicShop.OrderStatus",
          "name": "status",
          "type": "uint8"
        }
      ],
      "stateMutability": "view",
      "type": "function"
    },
    {
      "inputs": [],
      "name": "owner",
      "outputs": [
        {
          "internalType": "address",
          "name": "",
          "type": "address"
        }
      ],
      "stateMutability": "view",
      "type": "function"
    },
    {
      "stateMutability": "payable",
      "type": "receive"
    }
  ],
  "transactionHash": "0x2e937b398d5818b3f3b497df977eaa39ac0c8a8082e6aa148f7e57c7f25f99f4",
  "args": [],
  "numDeployments": 1,
  "solcInputHash": "a56bc7121e16f97feb25120e2261be7c",
  "bytecode": "0x608060405234801561001057600080fd5b50600480546001600160a01b0319163317905561123c806100326000396000f3fe60806040526004361061009a5760003560e01c8063a85c38ef11610069578063d96a094a1161004e578063d96a094a1461021b578063ea5df0591461022e578063ec34297a1461025f57600080fd5b8063a85c38ef146101ca578063c557f979146101fb57600080fd5b806326987b60146101175780634b5e4108146101405780638da5cb5b14610162578063925931fc146101b457600080fd5b366101125760405162461bcd60e51b815260206004820152602f60248201527f506c656173652075736520746865206275792066756e6374696f6e20746f207060448201527f7572636861736520616c62756d7321000000000000000000000000000000000060648201526084015b60405180910390fd5b600080fd5b34801561012357600080fd5b5061012d60025481565b6040519081526020015b60405180910390f35b34801561014c57600080fd5b5061016061015b366004610ca5565b610281565b005b34801561016e57600080fd5b5060045461018f9073ffffffffffffffffffffffffffffffffffffffff1681565b60405173ffffffffffffffffffffffffffffffffffffffff9091168152602001610137565b3480156101c057600080fd5b5061012d60035481565b3480156101d657600080fd5b506101ea6101e5366004610ca5565b6103eb565b604051610137959493929190610d1a565b34801561020757600080fd5b50610160610216366004610dce565b6104d1565b610160610229366004610ca5565b61064a565b34801561023a57600080fd5b5061024e610249366004610ca5565b61091c565b604051610137959493929190610e4c565b34801561026b57600080fd5b50610274610a6e565b6040516101379190610e8c565b60045473ffffffffffffffffffffffffffffffffffffffff1633146102e85760405162461bcd60e51b815260206004820152600c60248201527f6e6f7420616e206f776e657200000000000000000000000000000000000000006044820152606401610109565b6000600182815481106102fd576102fd610f4f565b6000918252602090912060059091020190506001600482015460ff16600181111561032a5761032a610d04565b036103775760405162461bcd60e51b815260206004820152600f60248201527f696e76616c6964207374617475732100000000000000000000000000000000006044820152606401610109565b60048101805460ff19166001908117909155600282015460405173ffffffffffffffffffffffffffffffffffffffff909116916103b79190840190610f99565b604051908190038120907f0428dc7031c0c35b6cfc8c2573c1f2eecf691dcffacf2a33fd549f311ae5f29d90600090a35050565b600181815481106103fb57600080fd5b6000918252602090912060059091020180546001820180549193509061042090610f65565b80601f016020809104026020016040519081016040528092919081815260200182805461044c90610f65565b80156104995780601f1061046e57610100808354040283529160200191610499565b820191906000526020600020905b81548152906001019060200180831161047c57829003601f168201915b5050505060028301546003840154600490940154929373ffffffffffffffffffffffffffffffffffffffff9091169290915060ff1685565b60045473ffffffffffffffffffffffffffffffffffffffff1633146105385760405162461bcd60e51b815260206004820152600c60248201527f6e6f7420616e206f776e657200000000000000000000000000000000000000006044820152606401610109565b60006040518060a00160405280600254815260200188888080601f016020809104026020016040519081016040528093929190818152602001838380828437600092019190915250505090825250604080516020601f8901819004810282018101909252878152918101919088908890819084018382808284376000920182905250938552505050602080830187905260409092018590528354600181810186559482529082902083516005909202019081559082015191929091908201906106019082611074565b50604082015160028201906106169082611074565b50606082015160038201556080909101516004909101556002805490600061063d8361114a565b9190505550505050505050565b600080828154811061065e5761065e610f4f565b90600052602060002090600502019050806003015434146106c15760405162461bcd60e51b815260206004820152600d60248201527f696e76616c6964207072696365000000000000000000000000000000000000006044820152606401610109565b60008160040154116107155760405162461bcd60e51b815260206004820152600d60248201527f6f7574206f662073746f636b21000000000000000000000000000000000000006044820152606401610109565b60048101805490600061072783611164565b919050555060016040518060a00160405280600354815260200183600101805461075090610f65565b80601f016020809104026020016040519081016040528092919081815260200182805461077c90610f65565b80156107c95780601f1061079e576101008083540402835291602001916107c9565b820191906000526020600020905b8154815290600101906020018083116107ac57829003601f168201915b505050918352505033602082015242604082015260600160009052815460018181018455600093845260209384902083516005909302019182559282015191929091908201906108199082611074565b5060408201516002820180547fffffffffffffffffffffffff00000000000000000000000000000000000000001673ffffffffffffffffffffffffffffffffffffffff90921691909117905560608201516003820155608082015160048201805460ff19166001838181111561089157610891610d04565b02179055505060038054915060006108a88361114a565b9190505550423373ffffffffffffffffffffffffffffffffffffffff16826001016040516108d69190610f99565b60405180910390207fd8d6445a893c1a3a59ebb7d6d6d1c4c02b694b556710a739e2b8f4d0fcd7403d84600101604051610910919061117b565b60405180910390a45050565b6000818154811061092c57600080fd5b6000918252602090912060059091020180546001820180549193509061095190610f65565b80601f016020809104026020016040519081016040528092919081815260200182805461097d90610f65565b80156109ca5780601f1061099f576101008083540402835291602001916109ca565b820191906000526020600020905b8154815290600101906020018083116109ad57829003601f168201915b5050505050908060020180546109df90610f65565b80601f0160208091040260200160405190810160405280929190818152602001828054610a0b90610f65565b8015610a585780601f10610a2d57610100808354040283529160200191610a58565b820191906000526020600020905b815481529060010190602001808311610a3b57829003601f168201915b5050505050908060030154908060040154905085565b600080546060919067ffffffffffffffff811115610a8e57610a8e61100f565b604051908082528060200260200182016040528015610af157816020015b610ade6040518060a0016040528060008152602001606081526020016060815260200160008152602001600081525090565b815260200190600190039081610aac5790505b50905060005b600054811015610c9f5760008181548110610b1457610b14610f4f565b90600052602060002090600502016040518060a001604052908160008201548152602001600182018054610b4790610f65565b80601f0160208091040260200160405190810160405280929190818152602001828054610b7390610f65565b8015610bc05780601f10610b9557610100808354040283529160200191610bc0565b820191906000526020600020905b815481529060010190602001808311610ba357829003601f168201915b50505050508152602001600282018054610bd990610f65565b80601f0160208091040260200160405190810160405280929190818152602001828054610c0590610f65565b8015610c525780601f10610c2757610100808354040283529160200191610c52565b820191906000526020600020905b815481529060010190602001808311610c3557829003601f168201915b5050505050815260200160038201548152602001600482015481525050828281518110610c8157610c81610f4f565b60200260200101819052508080610c979061114a565b915050610af7565b50919050565b600060208284031215610cb757600080fd5b5035919050565b6000815180845260005b81811015610ce457602081850181015186830182015201610cc8565b506000602082860101526020601f19601f83011685010191505092915050565b634e487b7160e01b600052602160045260246000fd5b85815260a060208201526000610d3360a0830187610cbe565b905073ffffffffffffffffffffffffffffffffffffffff8516604083015283606083015260028310610d7557634e487b7160e01b600052602160045260246000fd5b8260808301529695505050505050565b60008083601f840112610d9757600080fd5b50813567ffffffffffffffff811115610daf57600080fd5b602083019150836020828501011115610dc757600080fd5b9250929050565b60008060008060008060808789031215610de757600080fd5b863567ffffffffffffffff80821115610dff57600080fd5b610e0b8a838b01610d85565b90985096506020890135915080821115610e2457600080fd5b50610e3189828a01610d85565b979a9699509760408101359660609091013595509350505050565b85815260a060208201526000610e6560a0830187610cbe565b8281036040840152610e778187610cbe565b60608401959095525050608001529392505050565b60006020808301818452808551808352604092508286019150828160051b87010184880160005b83811015610f41577fffffffffffffffffffffffffffffffffffffffffffffffffffffffffffffffc0898403018552815160a08151855288820151818a870152610eff82870182610cbe565b9150508782015185820389870152610f178282610cbe565b60608481015190880152608093840151939096019290925250509386019390860190600101610eb3565b509098975050505050505050565b634e487b7160e01b600052603260045260246000fd5b600181811c90821680610f7957607f821691505b602082108103610c9f57634e487b7160e01b600052602260045260246000fd5b6000808354610fa781610f65565b60018281168015610fbf5760018114610fd457611003565b60ff1984168752821515830287019450611003565b8760005260208060002060005b85811015610ffa5781548a820152908401908201610fe1565b50505082870194505b50929695505050505050565b634e487b7160e01b600052604160045260246000fd5b601f82111561106f57600081815260208120601f850160051c8101602086101561104c5750805b601f850160051c820191505b8181101561106b57828155600101611058565b5050505b505050565b815167ffffffffffffffff81111561108e5761108e61100f565b6110a28161109c8454610f65565b84611025565b602080601f8311600181146110d757600084156110bf5750858301515b600019600386901b1c1916600185901b17855561106b565b600085815260208120601f198616915b82811015611106578886015182559484019460019091019084016110e7565b50858210156111245787850151600019600388901b60f8161c191681555b5050505050600190811b01905550565b634e487b7160e01b600052601160045260246000fd5b6000600019820361115d5761115d611134565b5060010190565b60008161117357611173611134565b506000190190565b600060208083526000845461118f81610f65565b808487015260406001808416600081146111b057600181146111ca576111f8565b60ff198516838a01528284151560051b8a010195506111f8565b896000528660002060005b858110156111f05781548b82018601529083019088016111d5565b8a0184019650505b50939897505050505050505056fea2646970667358221220eb7edf3a843eee1bc162012deadf3cf0a1784443452a7188715c893da1e89ebd64736f6c63430008100033",
  "devdoc": {
    "kind": "dev",
    "methods": {},
    "version": 1
  },
  "userdoc": {
    "kind": "user",
    "methods": {},
    "version": 1
  },
  "storageLayout": {
    "storage": [
      {
        "astId": 31,
        "contract": "contracts/MusicShop.sol:MusicShop",
        "label": "albums",
        "offset": 0,
        "slot": "0",
        "type": "t_array(t_struct(Album)12_storage)dyn_storage"
      },
      {
        "astId": 35,
        "contract": "contracts/MusicShop.sol:MusicShop",
        "label": "orders",
        "offset": 0,
        "slot": "1",
        "type": "t_array(t_struct(Order)24_storage)dyn_storage"
      },
      {
        "astId": 37,
        "contract": "contracts/MusicShop.sol:MusicShop",
        "label": "currentIndex",
        "offset": 0,
        "slot": "2",
        "type": "t_uint256"
      },
      {
        "astId": 39,
        "contract": "contracts/MusicShop.sol:MusicShop",
        "label": "currentOrderId",
        "offset": 0,
        "slot": "3",
        "type": "t_uint256"
      },
      {
        "astId": 41,
        "contract": "contracts/MusicShop.sol:MusicShop",
        "label": "owner",
        "offset": 0,
        "slot": "4",
        "type": "t_address"
      }
    ],
    "types": {
      "t_address": {
        "encoding": "inplace",
        "label": "address",
        "numberOfBytes": "20"
      },
      "t_array(t_struct(Album)12_storage)dyn_storage": {
        "base": "t_struct(Album)12_storage",
        "encoding": "dynamic_array",
        "label": "struct MusicShop.Album[]",
        "numberOfBytes": "32"
      },
      "t_array(t_struct(Order)24_storage)dyn_storage": {
        "base": "t_struct(Order)24_storage",
        "encoding": "dynamic_array",
        "label": "struct MusicShop.Order[]",
        "numberOfBytes": "32"
      },
      "t_enum(OrderStatus)27": {
        "encoding": "inplace",
        "label": "enum MusicShop.OrderStatus",
        "numberOfBytes": "1"
      },
      "t_string_storage": {
        "encoding": "bytes",
        "label": "string",
        "numberOfBytes": "32"
      },
      "t_struct(Album)12_storage": {
        "encoding": "inplace",
        "label": "struct MusicShop.Album",
        "members": [
          {
            "astId": 3,
            "contract": "contracts/MusicShop.sol:MusicShop",
            "label": "index",
            "offset": 0,
            "slot": "0",
            "type": "t_uint256"
          },
          {
            "astId": 5,
            "contract": "contracts/MusicShop.sol:MusicShop",
            "label": "uid",
            "offset": 0,
            "slot": "1",
            "type": "t_string_storage"
          },
          {
            "astId": 7,
            "contract": "contracts/MusicShop.sol:MusicShop",
            "label": "title",
            "offset": 0,
            "slot": "2",
            "type": "t_string_storage"
          },
          {
            "astId": 9,
            "contract": "contracts/MusicShop.sol:MusicShop",
            "label": "price",
            "offset": 0,
            "slot": "3",
            "type": "t_uint256"
          },
          {
            "astId": 11,
            "contract": "contracts/MusicShop.sol:MusicShop",
            "label": "quantity",
            "offset": 0,
            "slot": "4",
            "type": "t_uint256"
          }
        ],
        "numberOfBytes": "160"
      },
      "t_struct(Order)24_storage": {
        "encoding": "inplace",
        "label": "struct MusicShop.Order",
        "members": [
          {
            "astId": 14,
            "contract": "contracts/MusicShop.sol:MusicShop",
            "label": "orderId",
            "offset": 0,
            "slot": "0",
            "type": "t_uint256"
          },
          {
            "astId": 16,
            "contract": "contracts/MusicShop.sol:MusicShop",
            "label": "albumUid",
            "offset": 0,
            "slot": "1",
            "type": "t_string_storage"
          },
          {
            "astId": 18,
            "contract": "contracts/MusicShop.sol:MusicShop",
            "label": "customer",
            "offset": 0,
            "slot": "2",
            "type": "t_address"
          },
          {
            "astId": 20,
            "contract": "contracts/MusicShop.sol:MusicShop",
            "label": "orderedAt",
            "offset": 0,
            "slot": "3",
            "type": "t_uint256"
          },
          {
            "astId": 23,
            "contract": "contracts/MusicShop.sol:MusicShop",
            "label": "status",
            "offset": 0,
            "slot": "4",
            "type": "t_enum(OrderStatus)27"
          }
        ],
        "numberOfBytes": "160"
      },
      "t_uint256": {
        "encoding": "inplace",
        "label": "uint256",
        "numberOfBytes": "32"
      }
    }
  }
}